:200000001DC05EC236C0C5C234C033C068C231C030C07AC22EC09CC22CC0ACC285C229C062
:2000200028C027C026C067C56FC52AC557C530C520C5EBC4DCC4A0C477C46EC511241FBE93
:20004000CFE5D4E0DEBFCDBF10E0A0E6B0E0E4ECFDE002C005900D92AC37B107D9F721E0FA
:20006000ACE7B0E001C01D92A735B207E1F702D0A7C69EC2CF93DF93CDB7DEB728970FB670
:20008000F894DEBF0FBECDBF8E9A8F9A10924C0110924B0110924D01E3EBF0E080E090E052
:2000A000DC01AA0FBB1FA157BF4F11961C921E92138E128E1192119201968D30910581F7DC
:2000C0008FE390E09093CE008093CD0001E010E01093B6000093B5008FEF90E09093D0001A
:2000E0008093CF009093D6008093D50081E591E0DBD58091550190915601019661F4109348
:200100005601009355011092520110925101109254011092530182E090E09093AA00809317
:20012000A90020915101309152013093AC002093AB0020915301309154013093AE002093F3
:20014000AD0020915501309156013093B0002093AF002091AD003091AE003093900020932B
:200160008F003FEF4FE726E1315040402040E1F700C00000859B52C181E090E090938D00D8
:2001800080938C0088E08D831F821E8281E0888780E895E2A0E0B0E0282F89839A83AB83FA
:2001A000BC833A814B815C816D817E818F81988509D29EE088E10FB6F894A89581BD0FBE27
:2001C00091BD83B7856083BF89B7816089BF85B7826085BF8BB780648BBFB99A87B1806EBC
:2001E00087B986B18C6886B9789415E20CC080918B00811146C080915001811151C080913C
:200200008E00811162C080918600882349F11092860020918F00309190008091AD00909188
:20022000AE002817390709F48FC080918F009091900090935401809353018091530190918F
:2002400054019093AE008093AD008091AD009091AE009093900080938F0081E591E03AD5F0
:2002600080918700882309F4C2CF109287006091880087EE90E08ED280918B00882309F482
:20028000BACF10928B0087EE90E0ADD280914C018111B1CF979880915001882309F4AFCF1D
:2002A00087EE90E0D9D240918C006FE870E087EE90E0DCD280914C01811161C01092500113
:2002C00080918E00882309F49ECF8AE095E00197F1F7829914C080914E0190914F01892B97
:2002E00069F0C19A80918A008BBD809189008ABD8EB582608EBD89B7806189BF369A8091CC
:20030000970090919800009709F477C02091970030919800129FC001139F900D1124909308
:200320004F0180934E012091890030918A002817390708F059C0265F3F4F30938A002093E3
:20034000890010928E005FCF8091910090919200892BD1F08091910090919200909356011D
:200360008093550180915501909156019093B0008093AF0010929200109291006ECF87EE87
:2003800090E056D2979A9ACF8091930090919400883B924C09F061CF10929400109293009D
:2003A0008091950090919600892B09F456CF809195009091960090935201809351018091C1
:2003C0005101909152019093AC008093AB00109296001092950041CF10924F0110924E0168
:2003E0002091890030918A008217930708F0A9CF90938A0080938900A4CF20917C0030912B
:200400007D002A31310540F3129FC001139F900D112490934F0180934E0185CF2091550175
:200420003091560130938D0020938C0028E02D83209153013091540120FD2DC01F821E82F7
:20044000809153019091540182FD38C081E088878091530190915401969587959695879571
:2004600096958795E82FE770E150E73010F5F0E0EE0FFF1FEE0FFF1FE05AFF4F80819181D9
:20048000A281B38181153BE49307A105B10509F083CE979A81CE209153013091540121FF55
:2004A00005C081E090E09F838E83CACF9F838E83C7CF80E895E2A0E0B0E06ECE82E0C7CFEE
:2004C0001F920F920FB60F9211248F9381E080938E008F910F900FBE0F901F9018951F92D3
:2004E0000F920FB60F9211248F93C1988EB58D7F8EBD89B78F7E89BF1DBC1CBC8F910F90A6
:200500000FBE0F901F9018951F920F920FB60F9211248F9381E080938600A8958F910F900E
:200520000FBE0F901F9018951F920F920FB60F9211248F939F9385B190E090937D00809359
:200540007C009F918F910F900FBE0F901F9018951F920F920FB60F9211248F9381E08093E5
:2005600087008CB1809388008F910F900FBE0F901F9018951F920F920FB60F9211248F9386
:2005800081E080938B008F910F900FBE0F901F9018951F920F920FB60F9211248F9381E065
:2005A000809350018F910F900FBE0F901F9018951F920F920FB60F9211240F900FBE0F9058
:2005C0001F9018958F929F92AF92BF92FF920F931F93CF93DF93CDB7DEB728970FB6F894F9
:2005E000DEBF0FBECDBF29833A834B835C83F62E6D837E838F83988789809A80AB80BC801F
:200600000E811F8160E070E18EE090E0A5019401B5D3DA01C9010197A109B10989B9892FDE
:200620009A2FAB2FBB2780BD86E0F81609F481C087E0F81609F44BC088E0F8128FC086E89A
:200640000130110509F448C00230110509F47DC09885923009F445C080BD539A549A579AE2
:200660008B9A60E070E083EC9EE1A501940186D349015A01CA01B9012FEF30E040E050E09B
:200680007DD3213081E038074105510560F585B5213831054105510508F04DC02134310533
:2006A0004105510508F060C0213231054105510508F04DC0293031054105510508F05EC01B
:2006C000826085BD28E030E040E050E019C084E80130110509F0B8CF80629885923009F0C8
:2006E000BBCF8860B9CF85B5816085BD85B5826085BD85B5846085BD20E034E040E050E081
:20070000C501B4013BD3DA01C9010196A11DB11D83BD28960FB6F894DEBF0FBECDBFDF91D3
:20072000CF911F910F91FF90BF90AF909F908F90089582E885CF826085BD85B5846085BDBF
:2007400020E031E040E050E0DBCF806381CF846085BD20E430E040E050E0D2CF89E0F812BD
:2007600017C0529A86E86CCF816085BD85B5846085BD20E830E040E050E0C2CF816085BD6E
:2007800085B5826085BD20E230E040E050E0B8CF80E856CF14BCFC01EA59FF4F2081222341
:2007A00069F01082DC016C93329781E0808388B7806888BF89B7806889BF0895FC01EC5988
:2007C000FF4F2081243628F0DC016C9381E08083EECF31E0320FDC01A20FB11D6C9330835B
:2007E000313029F30895CF93DF93FC01EB59FF4F208121110BC0FC01EC59FF4F10823296F4
:20080000108293985698DF91CF910895DC01AC59BF4F2C91EC01C20FD11D88818CB98C91FC
:200820008F5F8C93808181508083DF91CF910895FC01EB59FF4F2081222369F0939ADC0191
:20084000AC59BF4F21E02C93208121502083569AFC0180818CB9089514BC29B72F7729BF02
:20086000FC01EA59FF4F81E0808308952F923F924F925F926F927F928F929F92AF92BF928F
:20088000CF92DF92EF92FF920F931F93CF93DF93CDB7DEB762970FB6F894DEBF0FBECDBFF3
:2008A000FC01842E212C312C40E050E0A12CB12C20E030E02C0185E6480E511CDF011496F0
:2008C000BE87AD873F01B4E66B0E711CCF010896988B8F87DF01AA59BF4FBC87AB874B3037
:2008E0005105E0F04B305105D1F762960FB6F894DEBF0FBECDBFDF91CF911F910F91FF904B
:20090000EF90DF90CF90BF90AF909F908F907F906F905F904F903F902F900895CA018D5EF1
:200920009F4F8F939F93089521153105D9F0AE014F5F5F4F7501E20EF31EC50189019F0131
:20094000FA01A90121913191DC01AA0FBB1FA60FB71F11963C932E9301968E159F0591F7E6
:200960009801FA018081882309F402C186E0D2018C934AE050E0B3CF8081882309F4F8C0E2
:20098000822F880F82832115310559F14D855E857501E20EF31EC50169019F01FA01A901B3
:2009A000DC01AA0FBB1F9D01260F371F3A8B298BD9015A960D911C915B979F0121503109D3
:2009C000D9011C93A989BA895A962D913C915B972083019632968E159F0511F79601FA01C9
:2009E00082818D5FD2018C934AE050E078CF8081882309F4BDC0818180688183228283E05A
:200A0000D2018C934AE050E06ACFD3011C915EEF510FDF018FEF9FEF052FAC01802F9D9179
:200A20004927942F92959427092E969596959025092E969590259770042E452F96950794D5
:200A40009795502D49270694979550254927815031F7CA01AF01410F511DDA011297AC91DF
:200A6000A81709F490C0EA59FF4F1082F30110823CCF8181803109F4AFC046E050E02FCF43
:200A80008081881511F0811173C043E050E027CFA280B12CBA2CAA248381A80EB11C2481CA
:200AA00030E0322F22278581280F311DC501820F931F0197A181A03109F478C0A33009F05C
:200AC0000ECFD3014C91483009F4DCC0AB85BC851C92D3011C9246E050E001CF81818330FB
:200AE00009F44EC0803109F44BC046E050E022242394312CF4CEAB85BC858C91882309F48A
:200B0000F4CE41E050E0EBCED3018C91883008F4AACF42E050E0E3CEBF016B597F4FDB01BA
:200B20004C91DF01942F2FEF3FEF8D912827822F82958227082E869586958025082E8695A9
:200B400080258770022E232F869507948795302D28270694879530252827915031F7DF01B6
:200B6000A40FB11D2C9311963C934E5FDB014C93DF01AA59BF4F1C92EC59FF4F1082B5CE10
:200B800044E050E0ACCEDA0111978C9189136BCF2114310409F07FC08181833009F481C07C
:200BA000803109F0A2CE49E050E099CED3014C91A42FB0E0A901440F551F475F5F4FA417C7
:200BC000B50709F050CF0D9708F468C046E050E092E0292E312C83CE2115310509F44DCF27
:200BE000AF85B889CE0101966C01750192E1E90EF11CEE0CFF1CE60EF71EC9010496880FA7
:200C0000991F8F01080F191F99249394AF01FA8AE98A7901CD010197FC01808190E0982F9D
:200C200088272C91820F911DF601819391936F01992081F0E989FA892081318182179307C5
:200C4000E8F0228D338D2817390720F481E0232BB9F4982E129629893A892E5F3F4F3A8B9B
:200C6000298BA017B107B1F69701FA01911005CF46E050E083E0282E312C31CE912CEACFC1
:200C800080E0E7CF059708F4F8CE46E050E092E0292E312C24CE47E050E021CE45E050E0D7
:200CA0001ECE48E050E01BCEFC0120E030E0A9014F5F5F4FE199FECF5FBB4EBBE09A9DB3C0
:200CC0009193D901A058BF4F9C939A014630510571F70895E19945C0E0917E00F0917F0007
:200CE000E058FF4F3081E0917E00F0917F00E80FF91F2081321711F1E0917E00F0917F00E4
:200D000020917E0030917F00DC01A20FB31F8C91E058FF4F808380917E0090917F00019698
:200D20009FBB8EBBE0917E00F0917F00E058FF4F80818DBBF894E29AE19A789480917E0034
:200D400090917F00019690937F0080937E0080917E0090917F00069728F010927F00109282
:200D60007E00089580917E0090917F008F3F9140C0F310927F0010927E00F3CFA1E21A2E09
:200D8000AA1BBB1BFD010DC0AA1FBB1FEE1FFF1FA217B307E407F50720F0A21BB30BE40B4B
:200DA000F50B661F771F881F991F1A9469F760957095809590959B01AC01BD01CF01089503
:200DC000F894FFCF40380000004B0000807000000096000000E10000002C010000C201009F
:00000001FF
