:100000001DC027C236C08EC234C033C031C231C019
:1000100030C043C22EC065C22CC075C24EC229C0BA
:1000200028C027C026C014C51CC5D5C404C5DBC460
:10003000CBC49AC48BC45DC438C41BC511241FBE75
:10004000CFE5D4E0DEBFCDBF10E0A0E6B0E0E6E053
:10005000FDE002C005900D92A236B107D9F721E06C
:10006000A2E6B0E001C01D92AD33B207E1F702D0C5
:1000700048C667C2CF93DF93CDB7DEB728970FB6D8
:10008000F894DEBF0FBECDBF8E9A8F9A10923201C8
:100090001092310110923301E9E9F0E080E090E044
:1000A000DC01AA0FBB1FAB58BF4F11961C921E92CA
:1000B000138E128E1192119201968D30910581F757
:1000C0008FE390E09093B4008093B30081E090E0E0
:1000D00090939C0080939B008FEF90E09093B600EC
:1000E0008093B5009093BC008093BB0087E391E0C0
:1000F0007CD580913B0190913C01019681F48091E7
:1001000060009091610090933C0180933B011092BC
:1001100038011092370110923A011092390182E0B1
:1001200090E09093900080938F00809137019091A0
:1001300038019093920080939100809139019091C1
:100140003A01909394008093930080913B019091A9
:100150003C0190939600809395008091930090913C
:10016000940090937600809375008FEF9FE726E1CF
:10017000815090402040E1F700C00000859B52C1B3
:1001800081E090E0909373008093720080E895E2A4
:10019000A0E0B0E089839A83AB83BC8388E08D8341
:1001A0001F821E8281E0888729813A814B815C8190
:1001B0006D817E818F819885CED19EE088E10FB6DA
:1001C000F894A89581BD0FBE91BD83B7856083BFAC
:1001D00089B7816089BF85B7826085BF8BB780642E
:1001E0008BBFB99A87B1806E87B986B18C6886B9A2
:1001F000789415E20CC080917100811146C0809105
:100200003601811151C080917400811162C08091CA
:100210006C00882349F110926C0020917500309198
:10022000760080919300909194002817390709F483
:100230008FC0809175009091760090933A018093E1
:1002400039018091390190913A0190939400809303
:100250009300809193009091940090937600809306
:10026000750087E391E0D7D480916D00882309F46D
:10027000C2CF10926D0060916E008DEC90E053D271
:1002800080917100882309F4BACF109271008DEC2F
:1002900090E072D2809132018111B1CF9798809114
:1002A0003601882309F4AFCF8DEC90E09ED24091C7
:1002B000720065E770E08DEC90E0A1D28091320190
:1002C000811161C01092360180917400882309F475
:1002D0009ECF8AE095E00197F1F7829914C0809152
:1002E000340190913501892B69F0C19A8091700099
:1002F0008BBD80916F008ABD8EB582608EBD89B73F
:10030000806189BF369A80917D0090917E00009730
:1003100009F477C020917D0030917E00129FC001CA
:10032000139F900D112490933501809334012091F7
:100330006F00309170002817390708F059C0265F08
:100340003F4F3093700020936F00109274005FCF86
:100350008091770090917800892BD1F0809177007F
:100360009091780090933C0180933B0180913B01F8
:1003700090913C01909396008093950010927800A4
:10038000109277006ECF8DEC90E01BD2979A9ACFA7
:100390008091790090917A00883B924C09F061CF6E
:1003A00010927A001092790080917B0090917C00ED
:1003B000892B09F456CF80917B0090917C0090931B
:1003C00038018093370180913701909138019093E3
:1003D00092008093910010927C0010927B0041CF9C
:1003E000109235011092340120916F00309170000D
:1003F0008217930708F0A9CF9093700080936F0045
:10040000A4CF20916200309163002A31310540F37E
:10041000129FC001139F900D11249093350180937A
:10042000340185CF809160009091610090937300BA
:100430008093720088E08D831F821E8281E088870E
:1004400080E895E2A0E0B0E089839A83AB83BC8327
:10045000ABCE1F920F920FB60F9211248F9381E0B3
:10046000809374008F910F900FBE0F901F9018957E
:100470001F920F920FB60F9211248F93C1988EB5D1
:100480008D7F8EBD89B78F7E89BF1DBC1CBC8F91AF
:100490000F900FBE0F901F9018951F920F920FB6DE
:1004A0000F9211248F9381E080936C00A8958F9117
:1004B0000F900FBE0F901F9018951F920F920FB6BE
:1004C0000F9211248F939F9385B190E090936300D6
:1004D000809362009F918F910F900FBE0F901F909D
:1004E00018951F920F920FB60F9211248F9381E0EF
:1004F00080936D008CB180936E008F910F900FBE32
:100500000F901F9018951F920F920FB60F92112403
:100510008F9381E0809371008F910F900FBE0F90A9
:100520001F9018951F920F920FB60F9211248F9360
:1005300081E0809336018F910F900FBE0F901F9036
:1005400018951F920F920FB60F9211240F900FBEA5
:100550000F901F9018958F929F92AF92BF92FF922B
:100560000F931F93CF93DF93CDB7DEB728970FB6C6
:10057000F894DEBF0FBECDBF29833A834B835C83E3
:10058000F62E6D837E838F83988789809A80AB80D7
:10059000BC800E811F8160E070E18EE090E0A501DB
:1005A00094018DD3DA01C9010197A109B10989B973
:1005B000892F9A2FAB2FBB2780BD86E0F81609F450
:1005C00081C087E0F81609F44BC088E0F8128FC0AC
:1005D00086E80130110509F448C00230110509F41C
:1005E0007DC09885923009F445C080BD539A549AD5
:1005F000579A8B9A60E070E083EC9EE1A50194012C
:100600005ED349015A01CA01B9012FEF30E040E041
:1006100050E055D3213081E038074105510560F5A0
:1006200085B5213831054105510508F04DC021340B
:1006300031054105510508F060C021323105410501
:10064000510508F04DC0293031054105510508F02C
:100650005EC0826085BD28E030E040E050E019C017
:1006600084E80130110509F0B8CF80629885923096
:1006700009F0BBCF8860B9CF85B5816085BD85B5F0
:10068000826085BD85B5846085BD20E034E040E0B2
:1006900050E0C501B40113D3DA01C9010196A11DCF
:1006A000B11D83BD28960FB6F894DEBF0FBECDBF37
:1006B000DF91CF911F910F91FF90BF90AF909F90CE
:1006C0008F90089582E885CF826085BD85B584606E
:1006D00085BD20E031E040E050E0DBCF806381CF9A
:1006E000846085BD20E430E040E050E0D2CF89E076
:1006F000F81217C0529A86E86CCF816085BD85B527
:10070000846085BD20E830E040E050E0C2CF8160E9
:1007100085BD85B5826085BD20E230E040E050E0D7
:10072000B8CF80E856CF14BCFC01EA59FF4F2081B6
:10073000222369F01082DC016C93329721E0208340
:1007400088B7806888BF89B7806889BF0895FC0131
:10075000EC59FF4F2081243628F0DC016C9381E0B6
:100760008083EECF31E0320FDC01A20FB11D6C931C
:100770003083313029F30895CF93DF93FC01EB5997
:10078000FF4F208121110BC0FC01EC59FF4F10825B
:100790003296108293985698DF91CF910895DC019C
:1007A000AC59BF4F2C91EC01C20FD11D88818CB97F
:1007B0008C918F5F8C93808181508083DF91CF916A
:1007C0000895FC01EB59FF4F2081222369F0939A91
:1007D000DC01AC59BF4F21E02C93208121502083B4
:1007E000569AFC0180818CB9089514BC29B72F77E3
:1007F00029BF8A599F4F21E0FC01208308952F9241
:100800003F924F925F926F927F928F929F92AF92A0
:10081000BF92CF92DF92EF92FF920F931F93CF93ED
:10082000DF93CDB7DEB72E970FB6F894DEBF0FBEBD
:10083000CDBFFC01842E40E050E0A12CB12C212C36
:10084000312C20E030E02C0185E6480E511C3F01A0
:1008500094E6690E711CDF01AA59BF4FBC87AB87B4
:100860004B305105E0F04B305105D1F72E960FB6C5
:10087000F894DEBF0FBECDBFDF91CF911F910F91D6
:10088000FF90EF90DF90CF90BF90AF909F908F90B0
:100890007F906F905F904F903F902F900895CA0186
:1008A0008D5E9F4F8F939F93089521153105B9F069
:1008B000AE014F5F5F4F7901EA0CFB1CC501DA0105
:1008C0000D911D91AD01DC01AA0FBB1FA60FB71F33
:1008D00011961C930E930196E816F90681F7808114
:1008E000882309F4F2C086E0D2018C934AE050E0FC
:1008F000B7CF8081882309F4E8C0822F880F8283D4
:1009000021153105E9F0DF017901EA0CFB1CC50175
:100910006F01AC01440F551F460F571FFA01028D9E
:10092000138D13961C931397428D538D14964C93ED
:10093000149701961296E816F90659F7F601828186
:100940008D5FD2018C934AE050E08ACF808188236A
:1009500009F4BBC0818180688183228283E0D20157
:100960008C934AE050E07CCFD3011C915EEF510F95
:10097000DF018FEF9FEF4D918427482F4295482745
:10098000042E469546954025042E469540254770F1
:10099000082E892F469507944795902D8427069415
:1009A000479590258427515031F7AF01410F511DD4
:1009B000DA011297AC91A81709F492C0EA59FF4FD7
:1009C0001082F301108252CF8181803109F4B0C0CE
:1009D00046E050E045CF8081881511F0811175C047
:1009E00043E050E03DCFA280B12CBA2CAA248381F1
:1009F000A80EB11C248130E0322F22278581280FD8
:100A0000311DC501820F931F8C0101501109818195
:100A1000803109F478C0833009F022CFD3018C9162
:100A2000883009F4CFC0AB85BC851C92D3011C92E1
:100A300046E050E015CF8181833009F44EC080310B
:100A400009F44BC046E050E022242394312C08CF17
:100A5000AB85BC858C91882309F408CF41E050E038
:100A6000FFCED3018C91883008F4A8CF42E050E04B
:100A7000F7CEBF016B597F4FDB014C91DF01342F63
:100A80008FEF9FEF2D918227282F22952827022E66
:100A9000269526952025022E269520252770082E9E
:100AA000892F269507942795902D822706942795C0
:100AB00090258227315031F7DF01A40FB11D8C93AF
:100AC00011969C934E5FDB014C93DF01AA59BF4FF7
:100AD0001C92EC59FF4F1082C9CE44E050E0C0CECA
:100AE000DA0111978C91891369CF2114310409F02F
:100AF00073C08181833009F475C0803109F0B6CEAE
:100B000049E050E0ADCED3014C9150E0C901880FCF
:100B1000991F09964817590709F050CF0D30110554
:100B200008F45DC046E050E082E0282E312C98CEDB
:100B30002115310509F44CCFDF018E010F5F1F4FE6
:100B4000A501440F551F460F571F6901CC0CDD1C32
:100B5000CE0EDF1E99249394FE87ED8717968C9115
:100B6000179790E0982F88271896FC9018978F0D6C
:100B7000911DF801819391938F01992079F0FA01E9
:100B8000E4A0F5A08E159F05C8F0E6ACF7ACE8161A
:100B9000F90620F481E0EF2899F4982E12964E5F22
:100BA0005F4FAC15BD05D1F6ED85FE85911010CFD8
:100BB00046E050E0A3E02A2E312C52CE912CEECF0D
:100BC00080E0EBCF0530110508F402CF46E050E09D
:100BD00082E0282E312C44CE47E050E041CE45E063
:100BE00050E03ECE48E050E03BCEFC0120E030E05B
:100BF000A9014F5F5F4FE199FECF5FBB4EBBE09A0B
:100C00009DB39193D901AA59BF4F9C939A01463045
:100C1000510571F70895E19945C0E0916400F091A4
:100C20006500EA59FF4F3081E0916400F091650062
:100C3000E80FF91F2081321711F1E0916400F09163
:100C400065002091640030916500DC01A20FB31FA4
:100C50008C91EA59FF4F80838091640090916500E8
:100C600001969FBB8EBBE0916400F0916500EA594C
:100C7000FF4F80818DBBF894E29AE19A789480913D
:100C800064009091650001969093650080936400E4
:100C90008091640090916500069728F0109265009D
:100CA00010926400089580916400909165008F3FD8
:100CB0009140C0F31092650010926400F3CFA1E25E
:100CC0001A2EAA1BBB1BFD010DC0AA1FBB1FEE1FC6
:100CD000FF1FA217B307E407F50720F0A21BB30B11
:100CE000E40BF50B661F771F881F991F1A9469F78D
:100CF00060957095809590959B01AC01BD01CF01E9
:060D00000895F894FFCFF6
:020D06002800C3
:00000001FF
